{"abi":[{"inputs":[{"internalType":"address","name":"_priceFeed","type":"address"}],"stateMutability":"nonpayable","type":"constructor","name":"constructor"},{"anonymous":false,"inputs":[{"indexed":true,"internalType":"address","name":"cuenta","type":"address"},{"indexed":false,"internalType":"uint256","name":"cantidad","type":"uint256"}],"name":"Inversion","type":"event"},{"anonymous":false,"inputs":[{"indexed":true,"internalType":"address","name":"inversionista","type":"address"},{"indexed":false,"internalType":"uint256","name":"saldoInicial","type":"uint256"}],"name":"NuevoInversionista","type":"event"},{"anonymous":false,"inputs":[{"indexed":true,"internalType":"address","name":"cuenta","type":"address"},{"indexed":false,"internalType":"uint256","name":"cantidad","type":"uint256"}],"name":"Retiro","type":"event"},{"inputs":[],"name":"getEntranceFee","outputs":[{"internalType":"uint256","name":"","type":"uint256"}],"stateMutability":"view","type":"function"},{"inputs":[{"internalType":"uint256","name":"_num_inv","type":"uint256"}],"name":"getInversiones","outputs":[{"internalType":"address","name":"","type":"address"}],"stateMutability":"view","type":"function"},{"inputs":[{"internalType":"uint256","name":"_num_inv","type":"uint256"}],"name":"getInversionesEth","outputs":[{"internalType":"uint256","name":"","type":"uint256"}],"stateMutability":"view","type":"function"},{"inputs":[],"name":"getTolerancia","outputs":[{"internalType":"int8","name":"","type":"int8"}],"stateMutability":"view","type":"function"},{"inputs":[{"internalType":"address","name":"_proyecto","type":"address"}],"name":"invertir","outputs":[],"stateMutability":"payable","type":"function"},{"inputs":[],"name":"priceFeed","outputs":[{"internalType":"contract AggregatorV3Interface","name":"","type":"address"}],"stateMutability":"view","type":"function"},{"inputs":[],"name":"registrarInversionista","outputs":[],"stateMutability":"nonpayable","type":"function"},{"inputs":[{"internalType":"uint256","name":"num_inv","type":"uint256"}],"name":"retirar_inversion","outputs":[],"stateMutability":"nonpayable","type":"function"}],"bytecode":"608060405234801561001057600080fd5b50604051610aa4380380610aa483398101604081905261002f91610054565b600180546001600160a01b0319166001600160a01b0392909216919091179055610084565b60006020828403121561006657600080fd5b81516001600160a01b038116811461007d57600080fd5b9392505050565b610a11806100936000396000f3fe60806040526004361061007b5760003560e01c8063741bef1a1161004e578063741bef1a146100ff5780638ed777ed14610137578063c4825ea114610157578063d9af372a1461018457600080fd5b806309bc33a71461008057806323cb2137146100a8578063286f5175146100ca5780635f9d1ad2146100ea575b600080fd5b34801561008c57600080fd5b50610095610197565b6040519081526020015b60405180910390f35b3480156100b457600080fd5b506100c86100c3366004610892565b6101de565b005b3480156100d657600080fd5b506100956100e5366004610892565b610369565b3480156100f657600080fd5b506100c86103a8565b34801561010b57600080fd5b5060015461011f906001600160a01b031681565b6040516001600160a01b03909116815260200161009f565b34801561014357600080fd5b5061011f610152366004610892565b610599565b34801561016357600080fd5b5033600090815260208181526040808320600501549051920b82520161009f565b6100c86101923660046108ab565b6105e1565b6000670de0b6b3a7640000816101ab610712565b9050670de0b6b3a7640000816101c182856108f1565b6101cb919061090e565b6101d6906001610930565b935050505090565b33600090815260208190526040902060040154806102435760405162461bcd60e51b815260206004820152601f60248201527f4e6f2068617920696e76657273696f6e6573207061726120726574697261720060448201526064015b60405180910390fd5b336000908152602081905260409020600401610260600184610943565b8154811061027057610270610956565b6000918252602080832090910180546001600160a01b0319169055338083529082905260409091206108fc906003016102aa600186610943565b815481106102ba576102ba610956565b90600052602060002001549081150290604051600060405180830381858888f193505050501580156102f0573d6000803e3d6000fd5b5033600090815260208190526040902060030161030e600184610943565b8154811061031e5761031e610956565b600091825260208220015560405133907febdddb82f24ed849145a8f144818f7d383a31047a4a7f30b928c65100f9b8eab9061035d9084815260200190565b60405180910390a25050565b336000908152602081905260408120600301610386600184610943565b8154811061039657610396610956565b90600052602060002001549050919050565b33600090815260208190526040902060050154610100900460ff16156104205760405162461bcd60e51b815260206004820152602760248201527f5961206573746173207265676973747261646f20636f6d6f20696e766572736960448201526637b734b9ba309760c91b606482015260840161023a565b604080516101408101825260008082526020808301828152838501838152606085018481526080860185815260a0870186815288518781528087018a5260c0890190815289518881528088018b5260e08a0152610100808a0189905260016101208b01819052338a528989529a9098208951815460ff91821660ff199190911617825596519a81019a909a55935160028a018054945193519251871663010000000263ff0000001993881662010000029390931663ffff00001994881690990261ffff199095169190961617929092171694909417939093179055905180519293849390926105169260038501929101906107dd565b5060e08201518051610532916004840191602090910190610828565b506101008281015160059290920180546101209094015160ff90931661ffff1990941693909317911515021790556040516000815233907fcb41aeeb5f587f54adb2f035eb6e6c25de82324307455674d4cdf7eade3ebc559060200160405180910390a250565b3360009081526020819052604081206004016105b6600184610943565b815481106105c6576105c6610956565b6000918252602090912001546001600160a01b031692915050565b670de0b6b3a7640000346106375760405162461bcd60e51b815260206004820152601c60248201527f4e6f20736520707565646520696e766572746972203020657468657200000000604482015260640161023a565b80610641346107a9565b101561068f5760405162461bcd60e51b815260206004820152601f60248201527f4c6120696e76657273696f6e206d696e696d6120657320646520312055534400604482015260640161023a565b336000818152602081815260408083206003810180546001808201835591865284862034910181905560049092018054918201815585529383902090930180546001600160a01b0319166001600160a01b038816179055519182527f391a18c8d89d221254512c1fb9369c9b0582d8fa815af1063361bddf4931d677910161035d565b600080600160009054906101000a90046001600160a01b03166001600160a01b031663feaf968c6040518163ffffffff1660e01b815260040160a060405180830381865afa158015610768573d6000803e3d6000fd5b505050506040513d601f19601f8201168201806040525081019061078c919061098b565b505050915050806402540be4006107a391906108f1565b91505090565b6000806107b4610712565b90506000670de0b6b3a76400006107cb85846108f1565b6107d5919061090e565b949350505050565b828054828255906000526020600020908101928215610818579160200282015b828111156108185782518255916020019190600101906107fd565b5061082492915061087d565b5090565b828054828255906000526020600020908101928215610818579160200282015b8281111561081857825182546001600160a01b0319166001600160a01b03909116178255602090920191600190910190610848565b5b80821115610824576000815560010161087e565b6000602082840312156108a457600080fd5b5035919050565b6000602082840312156108bd57600080fd5b81356001600160a01b03811681146108d457600080fd5b9392505050565b634e487b7160e01b600052601160045260246000fd5b8082028115828204841417610908576109086108db565b92915050565b60008261092b57634e487b7160e01b600052601260045260246000fd5b500490565b80820180821115610908576109086108db565b81810381811115610908576109086108db565b634e487b7160e01b600052603260045260246000fd5b805169ffffffffffffffffffff8116811461098657600080fd5b919050565b600080600080600060a086880312156109a357600080fd5b6109ac8661096c565b94506020860151935060408601519250606086015191506109cf6080870161096c565b9050929550929590935056fea2646970667358221220e01086f6c8c378ae1adc6a4ffd0f71e52067e8b77810579ee952f6d0a6efbdfe64736f6c63430008150033","bytecodeSha1":"c2b731ca41177801a60a8557e9497406002aa846","compiler":{"evm_version":"istanbul","optimizer":{"enabled":true,"runs":200},"version":"0.8.21+commit.d9974bed"},"contractName":"ContratoInversion","language":"Solidity","natspec":{"kind":"dev","methods":{},"version":1},"opcodes":"PUSH1 0x80 PUSH1 0x40 MSTORE PUSH1 0x4 CALLDATASIZE LT PUSH2 0x7B JUMPI PUSH1 0x0 CALLDATALOAD PUSH1 0xE0 SHR DUP1 PUSH4 0x741BEF1A GT PUSH2 0x4E JUMPI DUP1 PUSH4 0x741BEF1A EQ PUSH2 0xFF JUMPI DUP1 PUSH4 0x8ED777ED EQ PUSH2 0x137 JUMPI DUP1 PUSH4 0xC4825EA1 EQ PUSH2 0x157 JUMPI DUP1 PUSH4 0xD9AF372A EQ PUSH2 0x184 JUMPI PUSH1 0x0 DUP1 REVERT JUMPDEST DUP1 PUSH4 0x9BC33A7 EQ PUSH2 0x80 JUMPI DUP1 PUSH4 0x23CB2137 EQ PUSH2 0xA8 JUMPI DUP1 PUSH4 0x286F5175 EQ PUSH2 0xCA JUMPI DUP1 PUSH4 0x5F9D1AD2 EQ PUSH2 0xEA JUMPI JUMPDEST PUSH1 0x0 DUP1 REVERT JUMPDEST CALLVALUE DUP1 ISZERO PUSH2 0x8C JUMPI PUSH1 0x0 DUP1 REVERT JUMPDEST POP PUSH2 0x95 PUSH2 0x197 JUMP JUMPDEST PUSH1 0x40 MLOAD SWAP1 DUP2 MSTORE PUSH1 0x20 ADD JUMPDEST PUSH1 0x40 MLOAD DUP1 SWAP2 SUB SWAP1 RETURN JUMPDEST CALLVALUE DUP1 ISZERO PUSH2 0xB4 JUMPI PUSH1 0x0 DUP1 REVERT JUMPDEST POP PUSH2 0xC8 PUSH2 0xC3 CALLDATASIZE PUSH1 0x4 PUSH2 0x892 JUMP JUMPDEST PUSH2 0x1DE JUMP JUMPDEST STOP JUMPDEST CALLVALUE DUP1 ISZERO PUSH2 0xD6 JUMPI PUSH1 0x0 DUP1 REVERT JUMPDEST POP PUSH2 0x95 PUSH2 0xE5 CALLDATASIZE PUSH1 0x4 PUSH2 0x892 JUMP JUMPDEST PUSH2 0x369 JUMP JUMPDEST CALLVALUE DUP1 ISZERO PUSH2 0xF6 JUMPI PUSH1 0x0 DUP1 REVERT JUMPDEST POP PUSH2 0xC8 PUSH2 0x3A8 JUMP JUMPDEST CALLVALUE DUP1 ISZERO PUSH2 0x10B JUMPI PUSH1 0x0 DUP1 REVERT JUMPDEST POP PUSH1 0x1 SLOAD PUSH2 0x11F SWAP1 PUSH1 0x1 PUSH1 0x1 PUSH1 0xA0 SHL SUB AND DUP2 JUMP JUMPDEST PUSH1 0x40 MLOAD PUSH1 0x1 PUSH1 0x1 PUSH1 0xA0 SHL SUB SWAP1 SWAP2 AND DUP2 MSTORE PUSH1 0x20 ADD PUSH2 0x9F JUMP JUMPDEST CALLVALUE DUP1 ISZERO PUSH2 0x143 JUMPI PUSH1 0x0 DUP1 REVERT JUMPDEST POP PUSH2 0x11F PUSH2 0x152 CALLDATASIZE PUSH1 0x4 PUSH2 0x892 JUMP JUMPDEST PUSH2 0x599 JUMP JUMPDEST CALLVALUE DUP1 ISZERO PUSH2 0x163 JUMPI PUSH1 0x0 DUP1 REVERT JUMPDEST POP CALLER PUSH1 0x0 SWAP1 DUP2 MSTORE PUSH1 0x20 DUP2 DUP2 MSTORE PUSH1 0x40 DUP1 DUP4 KECCAK256 PUSH1 0x5 ADD SLOAD SWAP1 MLOAD SWAP3 SIGNEXTEND DUP3 MSTORE ADD PUSH2 0x9F JUMP JUMPDEST PUSH2 0xC8 PUSH2 0x192 CALLDATASIZE PUSH1 0x4 PUSH2 0x8AB JUMP JUMPDEST PUSH2 0x5E1 JUMP JUMPDEST PUSH1 0x0 PUSH8 0xDE0B6B3A7640000 DUP2 PUSH2 0x1AB PUSH2 0x712 JUMP JUMPDEST SWAP1 POP PUSH8 0xDE0B6B3A7640000 DUP2 PUSH2 0x1C1 DUP3 DUP6 PUSH2 0x8F1 JUMP JUMPDEST PUSH2 0x1CB SWAP2 SWAP1 PUSH2 0x90E JUMP JUMPDEST PUSH2 0x1D6 SWAP1 PUSH1 0x1 PUSH2 0x930 JUMP JUMPDEST SWAP4 POP POP POP POP SWAP1 JUMP JUMPDEST CALLER PUSH1 0x0 SWAP1 DUP2 MSTORE PUSH1 0x20 DUP2 SWAP1 MSTORE PUSH1 0x40 SWAP1 KECCAK256 PUSH1 0x4 ADD SLOAD DUP1 PUSH2 0x243 JUMPI PUSH1 0x40 MLOAD PUSH3 0x461BCD PUSH1 0xE5 SHL DUP2 MSTORE PUSH1 0x20 PUSH1 0x4 DUP3 ADD MSTORE PUSH1 0x1F PUSH1 0x24 DUP3 ADD MSTORE PUSH32 0x4E6F2068617920696E76657273696F6E65732070617261207265746972617200 PUSH1 0x44 DUP3 ADD MSTORE PUSH1 0x64 ADD JUMPDEST PUSH1 0x40 MLOAD DUP1 SWAP2 SUB SWAP1 REVERT JUMPDEST CALLER PUSH1 0x0 SWAP1 DUP2 MSTORE PUSH1 0x20 DUP2 SWAP1 MSTORE PUSH1 0x40 SWAP1 KECCAK256 PUSH1 0x4 ADD PUSH2 0x260 PUSH1 0x1 DUP5 PUSH2 0x943 JUMP JUMPDEST DUP2 SLOAD DUP2 LT PUSH2 0x270 JUMPI PUSH2 0x270 PUSH2 0x956 JUMP JUMPDEST PUSH1 0x0 SWAP2 DUP3 MSTORE PUSH1 0x20 DUP1 DUP4 KECCAK256 SWAP1 SWAP2 ADD DUP1 SLOAD PUSH1 0x1 PUSH1 0x1 PUSH1 0xA0 SHL SUB NOT AND SWAP1 SSTORE CALLER DUP1 DUP4 MSTORE SWAP1 DUP3 SWAP1 MSTORE PUSH1 0x40 SWAP1 SWAP2 KECCAK256 PUSH2 0x8FC SWAP1 PUSH1 0x3 ADD PUSH2 0x2AA PUSH1 0x1 DUP7 PUSH2 0x943 JUMP JUMPDEST DUP2 SLOAD DUP2 LT PUSH2 0x2BA JUMPI PUSH2 0x2BA PUSH2 0x956 JUMP JUMPDEST SWAP1 PUSH1 0x0 MSTORE PUSH1 0x20 PUSH1 0x0 KECCAK256 ADD SLOAD SWAP1 DUP2 ISZERO MUL SWAP1 PUSH1 0x40 MLOAD PUSH1 0x0 PUSH1 0x40 MLOAD DUP1 DUP4 SUB DUP2 DUP6 DUP9 DUP9 CALL SWAP4 POP POP POP POP ISZERO DUP1 ISZERO PUSH2 0x2F0 JUMPI RETURNDATASIZE PUSH1 0x0 DUP1 RETURNDATACOPY RETURNDATASIZE PUSH1 0x0 REVERT JUMPDEST POP CALLER PUSH1 0x0 SWAP1 DUP2 MSTORE PUSH1 0x20 DUP2 SWAP1 MSTORE PUSH1 0x40 SWAP1 KECCAK256 PUSH1 0x3 ADD PUSH2 0x30E PUSH1 0x1 DUP5 PUSH2 0x943 JUMP JUMPDEST DUP2 SLOAD DUP2 LT PUSH2 0x31E JUMPI PUSH2 0x31E PUSH2 0x956 JUMP JUMPDEST PUSH1 0x0 SWAP2 DUP3 MSTORE PUSH1 0x20 DUP3 KECCAK256 ADD SSTORE PUSH1 0x40 MLOAD CALLER SWAP1 PUSH32 0xEBDDDB82F24ED849145A8F144818F7D383A31047A4A7F30B928C65100F9B8EAB SWAP1 PUSH2 0x35D SWAP1 DUP5 DUP2 MSTORE PUSH1 0x20 ADD SWAP1 JUMP JUMPDEST PUSH1 0x40 MLOAD DUP1 SWAP2 SUB SWAP1 LOG2 POP POP JUMP JUMPDEST CALLER PUSH1 0x0 SWAP1 DUP2 MSTORE PUSH1 0x20 DUP2 SWAP1 MSTORE PUSH1 0x40 DUP2 KECCAK256 PUSH1 0x3 ADD PUSH2 0x386 PUSH1 0x1 DUP5 PUSH2 0x943 JUMP JUMPDEST DUP2 SLOAD DUP2 LT PUSH2 0x396 JUMPI PUSH2 0x396 PUSH2 0x956 JUMP JUMPDEST SWAP1 PUSH1 0x0 MSTORE PUSH1 0x20 PUSH1 0x0 KECCAK256 ADD SLOAD SWAP1 POP SWAP2 SWAP1 POP JUMP JUMPDEST CALLER PUSH1 0x0 SWAP1 DUP2 MSTORE PUSH1 0x20 DUP2 SWAP1 MSTORE PUSH1 0x40 SWAP1 KECCAK256 PUSH1 0x5 ADD SLOAD PUSH2 0x100 SWAP1 DIV PUSH1 0xFF AND ISZERO PUSH2 0x420 JUMPI PUSH1 0x40 MLOAD PUSH3 0x461BCD PUSH1 0xE5 SHL DUP2 MSTORE PUSH1 0x20 PUSH1 0x4 DUP3 ADD MSTORE PUSH1 0x27 PUSH1 0x24 DUP3 ADD MSTORE PUSH32 0x5961206573746173207265676973747261646F20636F6D6F20696E7665727369 PUSH1 0x44 DUP3 ADD MSTORE PUSH7 0x37B734B9BA3097 PUSH1 0xC9 SHL PUSH1 0x64 DUP3 ADD MSTORE PUSH1 0x84 ADD PUSH2 0x23A JUMP JUMPDEST PUSH1 0x40 DUP1 MLOAD PUSH2 0x140 DUP2 ADD DUP3 MSTORE PUSH1 0x0 DUP1 DUP3 MSTORE PUSH1 0x20 DUP1 DUP4 ADD DUP3 DUP2 MSTORE DUP4 DUP6 ADD DUP4 DUP2 MSTORE PUSH1 0x60 DUP6 ADD DUP5 DUP2 MSTORE PUSH1 0x80 DUP7 ADD DUP6 DUP2 MSTORE PUSH1 0xA0 DUP8 ADD DUP7 DUP2 MSTORE DUP9 MLOAD DUP8 DUP2 MSTORE DUP1 DUP8 ADD DUP11 MSTORE PUSH1 0xC0 DUP10 ADD SWAP1 DUP2 MSTORE DUP10 MLOAD DUP9 DUP2 MSTORE DUP1 DUP9 ADD DUP12 MSTORE PUSH1 0xE0 DUP11 ADD MSTORE PUSH2 0x100 DUP1 DUP11 ADD DUP10 SWAP1 MSTORE PUSH1 0x1 PUSH2 0x120 DUP12 ADD DUP2 SWAP1 MSTORE CALLER DUP11 MSTORE DUP10 DUP10 MSTORE SWAP11 SWAP1 SWAP9 KECCAK256 DUP10 MLOAD DUP2 SLOAD PUSH1 0xFF SWAP2 DUP3 AND PUSH1 0xFF NOT SWAP2 SWAP1 SWAP2 AND OR DUP3 SSTORE SWAP7 MLOAD SWAP11 DUP2 ADD SWAP11 SWAP1 SWAP11 SSTORE SWAP4 MLOAD PUSH1 0x2 DUP11 ADD DUP1 SLOAD SWAP5 MLOAD SWAP4 MLOAD SWAP3 MLOAD DUP8 AND PUSH4 0x1000000 MUL PUSH4 0xFF000000 NOT SWAP4 DUP9 AND PUSH3 0x10000 MUL SWAP4 SWAP1 SWAP4 AND PUSH4 0xFFFF0000 NOT SWAP5 DUP9 AND SWAP1 SWAP10 MUL PUSH2 0xFFFF NOT SWAP1 SWAP6 AND SWAP2 SWAP1 SWAP7 AND OR SWAP3 SWAP1 SWAP3 OR AND SWAP5 SWAP1 SWAP5 OR SWAP4 SWAP1 SWAP4 OR SWAP1 SSTORE SWAP1 MLOAD DUP1 MLOAD SWAP3 SWAP4 DUP5 SWAP4 SWAP1 SWAP3 PUSH2 0x516 SWAP3 PUSH1 0x3 DUP6 ADD SWAP3 SWAP2 ADD SWAP1 PUSH2 0x7DD JUMP JUMPDEST POP PUSH1 0xE0 DUP3 ADD MLOAD DUP1 MLOAD PUSH2 0x532 SWAP2 PUSH1 0x4 DUP5 ADD SWAP2 PUSH1 0x20 SWAP1 SWAP2 ADD SWAP1 PUSH2 0x828 JUMP JUMPDEST POP PUSH2 0x100 DUP3 DUP2 ADD MLOAD PUSH1 0x5 SWAP3 SWAP1 SWAP3 ADD DUP1 SLOAD PUSH2 0x120 SWAP1 SWAP5 ADD MLOAD PUSH1 0xFF SWAP1 SWAP4 AND PUSH2 0xFFFF NOT SWAP1 SWAP5 AND SWAP4 SWAP1 SWAP4 OR SWAP2 ISZERO ISZERO MUL OR SWAP1 SSTORE PUSH1 0x40 MLOAD PUSH1 0x0 DUP2 MSTORE CALLER SWAP1 PUSH32 0xCB41AEEB5F587F54ADB2F035EB6E6C25DE82324307455674D4CDF7EADE3EBC55 SWAP1 PUSH1 0x20 ADD PUSH1 0x40 MLOAD DUP1 SWAP2 SUB SWAP1 LOG2 POP JUMP JUMPDEST CALLER PUSH1 0x0 SWAP1 DUP2 MSTORE PUSH1 0x20 DUP2 SWAP1 MSTORE PUSH1 0x40 DUP2 KECCAK256 PUSH1 0x4 ADD PUSH2 0x5B6 PUSH1 0x1 DUP5 PUSH2 0x943 JUMP JUMPDEST DUP2 SLOAD DUP2 LT PUSH2 0x5C6 JUMPI PUSH2 0x5C6 PUSH2 0x956 JUMP JUMPDEST PUSH1 0x0 SWAP2 DUP3 MSTORE PUSH1 0x20 SWAP1 SWAP2 KECCAK256 ADD SLOAD PUSH1 0x1 PUSH1 0x1 PUSH1 0xA0 SHL SUB AND SWAP3 SWAP2 POP POP JUMP JUMPDEST PUSH8 0xDE0B6B3A7640000 CALLVALUE PUSH2 0x637 JUMPI PUSH1 0x40 MLOAD PUSH3 0x461BCD PUSH1 0xE5 SHL DUP2 MSTORE PUSH1 0x20 PUSH1 0x4 DUP3 ADD MSTORE PUSH1 0x1C PUSH1 0x24 DUP3 ADD MSTORE PUSH32 0x4E6F20736520707565646520696E766572746972203020657468657200000000 PUSH1 0x44 DUP3 ADD MSTORE PUSH1 0x64 ADD PUSH2 0x23A JUMP JUMPDEST DUP1 PUSH2 0x641 CALLVALUE PUSH2 0x7A9 JUMP JUMPDEST LT ISZERO PUSH2 0x68F JUMPI PUSH1 0x40 MLOAD PUSH3 0x461BCD PUSH1 0xE5 SHL DUP2 MSTORE PUSH1 0x20 PUSH1 0x4 DUP3 ADD MSTORE PUSH1 0x1F PUSH1 0x24 DUP3 ADD MSTORE PUSH32 0x4C6120696E76657273696F6E206D696E696D6120657320646520312055534400 PUSH1 0x44 DUP3 ADD MSTORE PUSH1 0x64 ADD PUSH2 0x23A JUMP JUMPDEST CALLER PUSH1 0x0 DUP2 DUP2 MSTORE PUSH1 0x20 DUP2 DUP2 MSTORE PUSH1 0x40 DUP1 DUP4 KECCAK256 PUSH1 0x3 DUP2 ADD DUP1 SLOAD PUSH1 0x1 DUP1 DUP3 ADD DUP4 SSTORE SWAP2 DUP7 MSTORE DUP5 DUP7 KECCAK256 CALLVALUE SWAP2 ADD DUP2 SWAP1 SSTORE PUSH1 0x4 SWAP1 SWAP3 ADD DUP1 SLOAD SWAP2 DUP3 ADD DUP2 SSTORE DUP6 MSTORE SWAP4 DUP4 SWAP1 KECCAK256 SWAP1 SWAP4 ADD DUP1 SLOAD PUSH1 0x1 PUSH1 0x1 PUSH1 0xA0 SHL SUB NOT AND PUSH1 0x1 PUSH1 0x1 PUSH1 0xA0 SHL SUB DUP9 AND OR SWAP1 SSTORE MLOAD SWAP2 DUP3 MSTORE PUSH32 0x391A18C8D89D221254512C1FB9369C9B0582D8FA815AF1063361BDDF4931D677 SWAP2 ADD PUSH2 0x35D JUMP JUMPDEST PUSH1 0x0 DUP1 PUSH1 0x1 PUSH1 0x0 SWAP1 SLOAD SWAP1 PUSH2 0x100 EXP SWAP1 DIV PUSH1 0x1 PUSH1 0x1 PUSH1 0xA0 SHL SUB AND PUSH1 0x1 PUSH1 0x1 PUSH1 0xA0 SHL SUB AND PUSH4 0xFEAF968C PUSH1 0x40 MLOAD DUP2 PUSH4 0xFFFFFFFF AND PUSH1 0xE0 SHL DUP2 MSTORE PUSH1 0x4 ADD PUSH1 0xA0 PUSH1 0x40 MLOAD DUP1 DUP4 SUB DUP2 DUP7 GAS STATICCALL ISZERO DUP1 ISZERO PUSH2 0x768 JUMPI RETURNDATASIZE PUSH1 0x0 DUP1 RETURNDATACOPY RETURNDATASIZE PUSH1 0x0 REVERT JUMPDEST POP POP POP POP PUSH1 0x40 MLOAD RETURNDATASIZE PUSH1 0x1F NOT PUSH1 0x1F DUP3 ADD AND DUP3 ADD DUP1 PUSH1 0x40 MSTORE POP DUP2 ADD SWAP1 PUSH2 0x78C SWAP2 SWAP1 PUSH2 0x98B JUMP JUMPDEST POP POP POP SWAP2 POP POP DUP1 PUSH5 0x2540BE400 PUSH2 0x7A3 SWAP2 SWAP1 PUSH2 0x8F1 JUMP JUMPDEST SWAP2 POP POP SWAP1 JUMP JUMPDEST PUSH1 0x0 DUP1 PUSH2 0x7B4 PUSH2 0x712 JUMP JUMPDEST SWAP1 POP PUSH1 0x0 PUSH8 0xDE0B6B3A7640000 PUSH2 0x7CB DUP6 DUP5 PUSH2 0x8F1 JUMP JUMPDEST PUSH2 0x7D5 SWAP2 SWAP1 PUSH2 0x90E JUMP JUMPDEST SWAP5 SWAP4 POP POP POP POP JUMP JUMPDEST DUP3 DUP1 SLOAD DUP3 DUP3 SSTORE SWAP1 PUSH1 0x0 MSTORE PUSH1 0x20 PUSH1 0x0 KECCAK256 SWAP1 DUP2 ADD SWAP3 DUP3 ISZERO PUSH2 0x818 JUMPI SWAP2 PUSH1 0x20 MUL DUP3 ADD JUMPDEST DUP3 DUP2 GT ISZERO PUSH2 0x818 JUMPI DUP3 MLOAD DUP3 SSTORE SWAP2 PUSH1 0x20 ADD SWAP2 SWAP1 PUSH1 0x1 ADD SWAP1 PUSH2 0x7FD JUMP JUMPDEST POP PUSH2 0x824 SWAP3 SWAP2 POP PUSH2 0x87D JUMP JUMPDEST POP SWAP1 JUMP JUMPDEST DUP3 DUP1 SLOAD DUP3 DUP3 SSTORE SWAP1 PUSH1 0x0 MSTORE PUSH1 0x20 PUSH1 0x0 KECCAK256 SWAP1 DUP2 ADD SWAP3 DUP3 ISZERO PUSH2 0x818 JUMPI SWAP2 PUSH1 0x20 MUL DUP3 ADD JUMPDEST DUP3 DUP2 GT ISZERO PUSH2 0x818 JUMPI DUP3 MLOAD DUP3 SLOAD PUSH1 0x1 PUSH1 0x1 PUSH1 0xA0 SHL SUB NOT AND PUSH1 0x1 PUSH1 0x1 PUSH1 0xA0 SHL SUB SWAP1 SWAP2 AND OR DUP3 SSTORE PUSH1 0x20 SWAP1 SWAP3 ADD SWAP2 PUSH1 0x1 SWAP1 SWAP2 ADD SWAP1 PUSH2 0x848 JUMP JUMPDEST JUMPDEST DUP1 DUP3 GT ISZERO PUSH2 0x824 JUMPI PUSH1 0x0 DUP2 SSTORE PUSH1 0x1 ADD PUSH2 0x87E JUMP JUMPDEST PUSH1 0x0 PUSH1 0x20 DUP3 DUP5 SUB SLT ISZERO PUSH2 0x8A4 JUMPI PUSH1 0x0 DUP1 REVERT JUMPDEST POP CALLDATALOAD SWAP2 SWAP1 POP JUMP JUMPDEST PUSH1 0x0 PUSH1 0x20 DUP3 DUP5 SUB SLT ISZERO PUSH2 0x8BD JUMPI PUSH1 0x0 DUP1 REVERT JUMPDEST DUP2 CALLDATALOAD PUSH1 0x1 PUSH1 0x1 PUSH1 0xA0 SHL SUB DUP2 AND DUP2 EQ PUSH2 0x8D4 JUMPI PUSH1 0x0 DUP1 REVERT JUMPDEST SWAP4 SWAP3 POP POP POP JUMP JUMPDEST PUSH4 0x4E487B71 PUSH1 0xE0 SHL PUSH1 0x0 MSTORE PUSH1 0x11 PUSH1 0x4 MSTORE PUSH1 0x24 PUSH1 0x0 REVERT JUMPDEST DUP1 DUP3 MUL DUP2 ISZERO DUP3 DUP3 DIV DUP5 EQ OR PUSH2 0x908 JUMPI PUSH2 0x908 PUSH2 0x8DB JUMP JUMPDEST SWAP3 SWAP2 POP POP JUMP JUMPDEST PUSH1 0x0 DUP3 PUSH2 0x92B JUMPI PUSH4 0x4E487B71 PUSH1 0xE0 SHL PUSH1 0x0 MSTORE PUSH1 0x12 PUSH1 0x4 MSTORE PUSH1 0x24 PUSH1 0x0 REVERT JUMPDEST POP DIV SWAP1 JUMP JUMPDEST DUP1 DUP3 ADD DUP1 DUP3 GT ISZERO PUSH2 0x908 JUMPI PUSH2 0x908 PUSH2 0x8DB JUMP JUMPDEST DUP2 DUP2 SUB DUP2 DUP2 GT ISZERO PUSH2 0x908 JUMPI PUSH2 0x908 PUSH2 0x8DB JUMP JUMPDEST PUSH4 0x4E487B71 PUSH1 0xE0 SHL PUSH1 0x0 MSTORE PUSH1 0x32 PUSH1 0x4 MSTORE PUSH1 0x24 PUSH1 0x0 REVERT JUMPDEST DUP1 MLOAD PUSH10 0xFFFFFFFFFFFFFFFFFFFF DUP2 AND DUP2 EQ PUSH2 0x986 JUMPI PUSH1 0x0 DUP1 REVERT JUMPDEST SWAP2 SWAP1 POP JUMP JUMPDEST PUSH1 0x0 DUP1 PUSH1 0x0 DUP1 PUSH1 0x0 PUSH1 0xA0 DUP7 DUP9 SUB SLT ISZERO PUSH2 0x9A3 JUMPI PUSH1 0x0 DUP1 REVERT JUMPDEST PUSH2 0x9AC DUP7 PUSH2 0x96C JUMP JUMPDEST SWAP5 POP PUSH1 0x20 DUP7 ADD MLOAD SWAP4 POP PUSH1 0x40 DUP7 ADD MLOAD SWAP3 POP PUSH1 0x60 DUP7 ADD MLOAD SWAP2 POP PUSH2 0x9CF PUSH1 0x80 DUP8 ADD PUSH2 0x96C JUMP JUMPDEST SWAP1 POP SWAP3 SWAP6 POP SWAP3 SWAP6 SWAP1 SWAP4 POP JUMP INVALID LOG2 PUSH5 0x6970667358 0x22 SLT KECCAK256 0xE0 LT DUP7 0xF6 0xC8 0xC3 PUSH25 0xAE1ADC6A4FFD0F71E52067E8B77810579EE952F6D0A6EFBDFE PUSH5 0x736F6C6343 STOP ADDMOD ISZERO STOP CALLER ","sha1":"0d2ce3a8362fbb26df2ed2106489459d84aa925e","source":"// SPDX-License-Identifier: MIT\npragma solidity ^0.8.4;\n\nimport \"@chainlink/contracts/src/v0.8/interfaces/AggregatorV3Interface.sol\";\n\ncontract ContratoInversion{\n\n    // Estructura de datos para representar a un inversionista\n    struct Inversionista {\n        uint8 edad;\n        uint256 ingreso_anual;\n        uint8 educacion_universitaria;\n        uint8 estado_civil;\n        uint8 hijos;\n        uint8 educacion_financiera;\n        uint256 [] eth_inversion;\n        address [] inversiones;\n        int8 tolerancia;\n        bool registrado;\n    }\n\n    // Mapeo para asociar direcciones de Ethereum con inversionistas\n    mapping(address => Inversionista) private inversionistas;\n\n    // Evento que se emite cuando un nuevo inversionista se registra\n    event NuevoInversionista(address indexed inversionista, uint256 saldoInicial);\n\n    event Inversion(address indexed cuenta, uint256 cantidad);\n\n    event Retiro(address indexed cuenta, uint256 cantidad);\n\n    AggregatorV3Interface public priceFeed;\n\n    constructor(address _priceFeed) public {\n        priceFeed = AggregatorV3Interface(_priceFeed);\n    }\n\n    // FunciÃ³n para registrar un nuevo inversionista\n    function registrarInversionista() public {\n        require(!inversionistas[msg.sender].registrado, \"Ya estas registrado como inversionista.\");\n        \n        Inversionista memory nuevoInversionista = Inversionista({\n            edad: 0,\n            ingreso_anual: 0,\n            educacion_universitaria: 0,\n            estado_civil: 0,\n            hijos: 0,\n            educacion_financiera: 0,\n            eth_inversion: new uint256[](0),\n            inversiones: new address[](0),\n            tolerancia: 0,\n            registrado: true\n        });\n\n        inversionistas[msg.sender] = nuevoInversionista;\n\n        emit NuevoInversionista(msg.sender, 0);\n    }\n\n    function invertir(address _proyecto) public payable {\n        uint256 minimunUSD = 1 * 10**18;\n        require(msg.value > 0, \"No se puede invertir 0 ether\");\n        require(getConversionRate(msg.value) >= minimunUSD, \"La inversion minima es de 1 USD\");\n        inversionistas[msg.sender].eth_inversion.push(msg.value);\n        inversionistas[msg.sender].inversiones.push(_proyecto);\n        emit Inversion(msg.sender, msg.value);\n    }\n\n\n    function retirar_inversion(uint256 num_inv) public{\n        uint256 cantidad = uint256(inversionistas[msg.sender].inversiones.length);\n        require(cantidad > 0, \"No hay inversiones para retirar\");\n        delete inversionistas[msg.sender].inversiones[num_inv-1];\n        payable(msg.sender).transfer(inversionistas[msg.sender].eth_inversion[num_inv-1]);\n        delete inversionistas[msg.sender].eth_inversion[num_inv-1];\n        emit Retiro(msg.sender, cantidad);\n    }\n\n    function getInversiones(uint256 _num_inv) public view returns (address) {\n        return inversionistas[msg.sender].inversiones[_num_inv-1];\n    }\n\n    function getInversionesEth(uint256 _num_inv) public view returns (uint256) {\n        return inversionistas[msg.sender].eth_inversion[_num_inv-1];\n    }\n\n    function getTolerancia() public view returns (int8) {\n        return inversionistas[msg.sender].tolerancia;\n    }\n\n    function getPrice() private view returns (uint256) {\n        (, int256 price, , , ) = priceFeed.latestRoundData();\n        return uint256(price) * 10000000000;\n    }\n\n    function getConversionRate(uint256 ethAmount) private view returns (uint256) {\n        uint256 ethPrice = getPrice();\n        uint256 ethAmountInUsd = (ethPrice * ethAmount) / 1000000000000000000;\n        return ethAmountInUsd;\n    }\n\n    function getEntranceFee() public view returns (uint256) {\n        uint256 minimumUSD = 1 * 10**18;\n        uint256 price = getPrice();\n        uint256 precision = 1 * 10**18;\n        return ((minimumUSD * precision) / price) + 1;\n    }\n}","sourcePath":"contracts/ContratoInversion.sol","type":"contract","deployment":{"address":"0x66b696b7701C540C338a5809f1e2f6b08B87317e","chainid":"11155111","blockHeight":4401468}}